:020000040800F2
:1000000060070020490100089501000897010008D9
:10001000990100089B0100089D01000800000000F4
:100020000000000000000000000000009F01000828
:10003000A101000800000000A3010008010500085C
:100040008102000885020008870200088302000878
:1000500019030008000000007902000825050008C7
:1000600027050008FD040008FF0400087D020008C1
:100070007F020008000000000000000015050008D5
:1000800017050008190500081B0500081D050008D4
:100090001F050008930200089102000821050008CE
:1000A0002305000800000000000000000000000020
:1000B00000000000770200087B020008A70100088A
:1000C00000F002F800F030F80CA030C8083824180E
:1000D0002D18A246671EAB4654465D46AC4201D180
:1000E00000F022F87E460F3E0FCCB6460126334282
:1000F00000D0FB1AA246AB46334318473404000035
:10010000440400000023002400250026103A01D3F7
:1001100078C1FBD8520700D330C100D50B607047BF
:100120001FB51FBD10B510BD00F073F81146FFF7E5
:10013000F7FF00F0F9F900F08BF803B4FFF7F2FFD6
:1001400003BC00F091F800001A4801681A4A1143F4
:1001500001601A481A4901601A4819490160154896
:100160000168194A1140016018481949016019488D
:100170001949016019481A4901601A481A49016071
:100180001A48194901601548194901601948804702
:1001900019480047FEE7FEE7FEE7FEE7FEE7FEE759
:1001A000FEE7FEE7FEE7FEE714481549154A164B41
:1001B0007047000000300040010000003C08014092
:1001C00000015FA07C080140FEFFFFFF10300040EF
:1001D00010F05FA0DC03004001005FA000100240AF
:1001E000200180005C10024060005FA0BC10024053
:1001F0000000000005050008C100000860000020A4
:1002000060070020600200206002002070477047F5
:100210007047754600F024F8AE460500694653461F
:10022000C008C000854618B020B5FFF7BDFF60BC10
:1002300000274908B6460026C0C5C0C5C0C5C0C510
:10024000C0C5C0C5C0C5C0C5403D49008D4670474A
:1002500010B50446C046C0462046FFF76EFF10BDED
:10026000004870470000002001491820ABBEFEE79F
:10027000260002007047704770477047704770470C
:10028000704770477047704710B500F0FDF810BD1B
:100290007047704704490A6807231B059A430A60A0
:1002A0000A6802430A6070470030004000B5024609
:1002B000FF2000F0DFF8054940234869002A01D0FB
:1002C000184300E09843486100BD00000030004042
:1002D00000B50246FF2000F0CDF805490B1448692F
:1002E000002A01D0184300E09843486100BD000097
:1002F0000030004000B50246FF2000F0BBF8054981
:1003000020234869002A01D0184300E0984348613F
:1003100000BD0000003000407047000000B50246FC
:10032000FF2000F0A7F80549CB134869002A01D047
:10033000184300E09843486100BD000000300040D1
:1003400000B50246FF2000F095F8054902234869F0
:10035000002A01D0184300E09843486100BD000026
:100360000030004000B50246FF2000F083F8054948
:10037000002A486902D00122104301E040084000F1
:10038000486100BD0030004030B50346FF2000F05A
:1003900071F8194A506903242403A0432043506193
:1003A00016488025834218D0FF2000F063F850697A
:1003B0000721C9018843184350615069284350619F
:1003C0005069000616D5D81FFF38FA3803D1506996
:1003D000A043A9010BE0002030BD5069A843506143
:1003E0005069000606D450690121A043090308435F
:1003F0005061F0E7012030BD003000407FFF000079
:1004000010B50C4C0423024601280ED0FF2000F04A
:1004100031F820699843206107498869E0239843AF
:10042000886188691043886110BD20691843206184
:1004300010BD000000E000E0003000400549002849
:10044000086902D00322104301E08008800008619F
:100450007047000000E000E00449401E884203D8D5
:10046000034948610020886170470000FFFFFF00DA
:1004700000E000E0402803D30249C8600020704734
:10048000012070470030004010B500F003F800F084
:100490001FF810BD10B5FF20FFF7ECFF0020FFF79D
:1004A00029FF0020FFF75EFF0120FFF749FF012031
:1004B000FFF7FCFE0120FFF731FF0120FFF708FFE7
:1004C00001204002FFF760FF0020FFF7E3FE10BDB0
:1004D00010B5FF20FFF7CEFF0020FFF791FF7D2032
:1004E000C001FFF7B9FF0448C1690902090AC161E7
:1004F0000120FFF7A3FF10BD04ED00E07047704737
:100500007047000001200249C00688607047000063
:1005100000ED00E0704770477047704770477047C4
:100520007047704770477047FFF7AEFEFEE7000068
:1005300040050008000000206007000004010008DA
:04000005080000C12E
:00000001FF
