:020000040800F2
:100000002010002065010008B1010008B3010008BC
:10001000B5010008B7010008B901000800000000A0
:10002000000000000000000000000000BB0100080C
:10003000BD01000800000000BF010008D90F000842
:100040000D0900081F090008690900081D090008BA
:10005000DD0D000800000000F1060008491000084E
:100060004B100008CD0F0008CF0F000891080008C2
:10007000930800080000000000000000391000088C
:100080003B1000083D1000083F1000084110000818
:1000900043100008ED0C0008F10B000845100008A3
:1000A00047100008000000000000000000000000F1
:1000B00000000000BB050008DD070008C3010008C0
:1000C00000F002F800F03EF80CA030C80838241800
:1000D0002D18A246671EAB4654465D46AC4201D180
:1000E00000F030F87E460F3E0FCCB6460126334274
:1000F00000D0FB1AA246AB46334318474813000012
:1001000068130000103A02D378C878C1FAD85207B1
:1001100001D330C830C101D504680C6070470000BD
:100120000023002400250026103A01D378C1FBD813
:10013000520700D330C100D50B6070471FB51FBDFB
:1001400010B510BD00F0C2F91146FFF7F7FF01F03E
:100150002FF800F0DAF903B4FFF7F2FF03BC00F068
:100160000FFA00001A4801681A4A114301601A4840
:100170001A4901601A481949016015480168194A6D
:100180001140016018481949016019481949016076
:1001900019481A4901601A481A4901601A48194950
:1001A00001601548194901601948804719480047FE
:1001B000FEE7FEE7FEE7FEE7FEE7FEE7FEE7FEE717
:1001C000FEE7FEE714481549154A164B7047000034
:1001D00000300040010000003C08014000015FA029
:1001E0007C080140FEFFFFFF1030004010F05FA0D0
:1001F000DC03004001005FA00010024020018000ED
:100200005C10024060005FA0BC10024000000000D3
:10021000DD0F0008C1000008200900202010002088
:10022000200B0020200B002001E004C0091F04293E
:10023000FBD28B0701D50280801CC90700D0027059
:10024000704700290BD0C30702D00270401C491E22
:10025000022904D3830702D50280801C891EE3E7AC
:100260000022EEE70022DFE7002203098B422CD3B5
:10027000030A8B4211D300239C464EE003460B43F6
:100280003CD4002243088B4231D303098B421CD358
:10029000030A8B4201D394463FE0C3098B4201D34A
:1002A000CB01C01A524183098B4201D38B01C01A82
:1002B000524143098B4201D34B01C01A52410309F9
:1002C0008B4201D30B01C01A5241C3088B4201D3A8
:1002D000CB00C01A524183088B4201D38B00C01A55
:1002E000524143088B4201D34B00C01A5241411A7C
:1002F00000D201465241104670475DE0CA0F00D05F
:100300004942031000D34042534000229C46030957
:100310008B422DD3030A8B4212D3FC22890112BADD
:10032000030A8B420CD3890192118B4208D38901B5
:1003300092118B4204D389013AD0921100E08909CD
:10034000C3098B4201D3CB01C01A524183098B42AE
:1003500001D38B01C01A524143098B4201D34B0197
:10036000C01A524103098B4201D30B01C01A5241FA
:10037000C3088B4201D3CB00C01A524183088B4281
:1003800001D38B00C01A5241D9D243088B4201D30A
:100390004B00C01A5241411A00D2014663465241F5
:1003A0005B10104601D34042002B00D549427047F4
:1003B00063465B1000D3404201B50020C046C046F2
:1003C00002BD7047704770471F22030C02D10F22F5
:1003D00000041CD0030E01D10002083A030F01D122
:1003E0000001121F830F01D18000921E002801DB43
:1003F0004000521ED2055118021251181922904085
:1004000004D3491C002801D1490849000846704717
:10041000C10FC90700D04042012292071143D3E720
:1004200001218907D0E7000010B5FF231B06440017
:100430009C421DD84C009C421AD80346124A0B43DA
:1004400007D4401A02D3EFF3008010BDEFF3008011
:1004500010BD081A06D2EFF3008001219043C907AE
:10046000084302E0EFF30080904380F3008810BD62
:100470000D231B041A4204D01146002000F006F898
:1004800010BD00F01BF810BD00000090C80212D58E
:100490004803400F002804D0C803C043012188400E
:1004A0007047EFF3008000010009032109070843AA
:1004B00080F30088704700207047000010B50248A4
:1004C00000F02BF810BD00000000C07F754600F062
:1004D00053F8AE46050069465346C008C00085463D
:1004E00018B020B5FFF76EFE60BC00274908B6467D
:1004F0000026C0C5C0C5C0C5C0C5C0C5C0C5C0C533
:10050000C0C5403D49008D46704710B50446C04601
:10051000C0462046FFF71FFE10BD10B50C46110760
:10052000090F092904D00A290AD008290CD104E0AE
:1005300011460820FFF7AAFF06E0510606D501E0A4
:10054000510601D50120C007214610BDD10607D5AF
:1005500001010909CC084907000E0006044309E01F
:10056000410F20024907000A0143200E00061D2208
:10057000D14101430846E7E700487047C008002022
:1005800001491820ABBEFEE726000200704741601B
:1005900070470122D2030029016801D0114300E015
:1005A000914301607047806880B27047024652688C
:1005B00000200A4200D0012070477047002A0268DC
:1005C00001D00A4300E08A430260704710B5026818
:1005D000054B8C681A400B6823438C8914432343D2
:1005E00003604968C16010BDE0F7C8FF02685209A6
:1005F00052010A4302607047016880221143016082
:100600007047002181810122920441600260816073
:100610007047000070B500F0E9FC234821490160F3
:1006200020490125303941601E218160FF210131BF
:100630008181857300F060FD1B481C49103001600A
:100640007D210571490181603221017300F07EF83E
:10065000154C174820342060002020726572A58058
:10066000E580A072204600F01FFA0226A680E680F0
:10067000A572204600F018FA0420A080E080A6723F
:10068000204600F011FA0820A080E0800320A0722C
:10069000204600F009FA074800F0A4FA642000F0B0
:1006A00047F870BD402102402000002000020240B7
:1006B000001001402D0B00084160704700290168BF
:1006C00002D08022114301E0014A114001607047CD
:1006D0007FFF00000268120912010A43026070479E
:1006E0000246526800200A4200D0012070470000F4
:1006F00010B5084C01212046FFF7F2FF012807D171
:1007000005490A683F320A6001212046FFF7D4FFFD
:1007100010BD0000002102404C000020002A0268A9
:1007200001D00A4302E0C94389B20A40026070471F
:1007300010B5054C0121206800F0DAFA002120688C
:1007400000F0D6FA10BD0000B00800207FB5174CAD
:1007500001682160017921718168A160007B2073AB
:10076000684600F0F1FA002569460D804D808D80C5
:100770000F48A168FFF778FD6946C8802079039586
:100780000290206800F0C0FA6946C888217B48437F
:100790006421FFF769FD82B22179206800F0C6FA72
:1007A0000021206800F0A4FA7FBD0000B0080020FE
:1007B0000024F40010B503480121006800F098FA05
:1007C00010BD0000B008002010B5034800210068EB
:1007D00000F08EFA10BD0000B00800207047000045
:1007E000F8B5134A0446104643881578114E59004F
:1007F000002D12D0705A5768381A50600019506096
:1008000074525B1C99B201239B025180994206D31A
:10081000002151800121117003E05068EEE7002DA6
:1008200001D0800AF8BD491CFFF71EFDF8BD00008D
:10083000040000207400002010B500F061F80649A3
:10084000CA68801A054A1268904201D9012000E066
:100850000020087210BD0000600000204014000855
:1008600070B5094C00F036FC0546216800F07AFDB1
:10087000064940004008096800F048FD02D200F037
:1008800065FB256070BD0000000000203C140008DE
:1008900070477047F0B54B880A88022B04D0012BB3
:1008A00006D0002B0BD011E0036A134303620DE066
:1008B000036A93430362026C0B881A4305E0036AE0
:1008C00093430362026C0B889A430264036E002216
:1008D0000E88032701249440264206D054003D464A
:1008E000A540AB438D88A5402B43521C102AF1D361
:1008F0000366F0BD0068084000D00120704700008A
:1009000001480069704700004C00002010B502202B
:1009100000F0AAF8012000F029F810BD704710B5CA
:100920000121022000F02EF8012805D1002000F05E
:100930009BF8022000F01AF80121042000F022F8B0
:10094000012804D100F090F8042000F00FF80121F4
:10095000082000F017F8012805D1032000F084F8E2
:10096000082000F003F810BD7047000004490A6A2F
:10097000C04380B202400A620A6802400A607047BF
:10098000C018014002460020CB07054903D0096A80
:1009900002E00120704709681142FAD17047000057
:1009A000C018014030B5C343CD070B4C9BB2002D9E
:1009B00004D0256A012A09D01D402562890704D583
:1009C000012A05D020681840206030BD0543F4E7B7
:1009D00021680143216030BD00180140F0B58178E5
:1009E0001E4ACB070188136A01D00B4300E08B43FA
:1009F0001362817889071168038801D5194300E0E3
:100A000099431160154940390A680021012506887B
:100A10000F272B468B401E4206D08B003C469C4045
:100A2000A24384889C402243491C0829F1D30B4CE3
:100A3000403C2260226A0DE02B4606888B401E4215
:100A400007D08B003E46203B9E40B24386889E40A6
:100A50003243491C1029EFD32262F0BD80180140B7
:100A600010B500F079FA10BD70B504460D48007E4F
:100A7000A04213D90B4D0C206043203D4019C08883
:100A8000FFF774FF204600F08DF8012807D00028FA
:100A900004D1696B002901D02046884770BD296BBD
:100AA000F8E70000940800207FB51F4D297E042937
:100AB00032D20C2251432A46203A0368535083888D
:100AC0008C18A380C688E680067A2672467A6672FB
:100AD000807AA072684603810126468100238381C3
:100AE000505802A9FFF7D6FEE18868460180217AB6
:100AF0008180607A012810D0684646806846FFF7FA
:100B00006DFF607A01280CD00121E0880122FFF7F7
:100B100049FF287E401C28767FBD02206946488018
:100B2000ECE70221F1E700009408002070B50446CC
:100B300000F00CFA1A4D002C07D0012C23D0022C07
:100B400013D0032C22D150201EE0287800280AD090
:100B5000687A012803D100F091F8002803D100F051
:100B60001FFB322010E014200EE0687A012803D128
:100B700000F084F80028F6D12878002807D000205B
:100B80002870002805D06420FFF7D2FD70BD012039
:100B9000F6E71E20FFF7CCFD00F01AFA70BD00004A
:100BA0006000002010B50E49097E814216D90C4A1A
:100BB0000C214843203A8418A1881058FFF79AFE68
:100BC000012802D0002804D006E0607A012805D070
:100BD00002E0607A002801D0012010BD002010BD85
:100BE0009408002001490863704700007408002041
:100BF000704700000029016802D00122114301E082
:100C0000014A114001607047FEFF000030B50268E4
:100C1000074B4C891A408B88CD8823438C892C4301
:100C200023430C89096823430B431343036030BDFE
:100C300015CC7FFFF0B50F490B784D788C78CA78CA
:100C40005E19A718F7190E79497936020E43552B0C
:100C50000DD1552C0BD1B74209D10168064B1206B4
:100C600019402B041A430A4302600020F0BD012002
:100C7000F0BD00008004C008FFFFE0E010B500F008
:100C800029FA0649096800F041FB03D2FFF792FDFB
:100C9000012010BDFFF798FD002010BD341400089E
:100CA00070B5FFF72DFE0E4D04460E492869096800
:100CB000201A884212D3687A00280ED1287800289A
:100CC0000BD000F007FA0849096800F01FFB02D2B8
:100CD000FFF770FD01E0FFF777FD2C6170BD0000AC
:100CE0006000002038140008341400087047000029
:100CF0000029016802D08022114301E0014A11401D
:100D0000016070477FFF000010B5026867239A43B7
:100D10000B884C8823438C881443234303608A68E0
:100D20004260CA68C260C988816110BD30B50124C3
:100D30000023214202D09D002D182A635B1C640011
:100D4000DBB2082BF5D330BD00214180C180C160EA
:100D5000816001808180704704490A6807231B0570
:100D60009A430A600A6802430A60704700300040F4
:100D700000B50246FF2000F0DFF80549402348692E
:100D8000002A01D0184300E09843486100BD0000EC
:100D90000030004000B50246FF2000F0CDF80549C4
:100DA0000B144869002A01D0184300E098434861B9
:100DB00000BD00000030004000B50246FF2000F0FA
:100DC000BBF8054920234869002A01D0184300E0F8
:100DD0009843486100BD00000030004070470000AB
:100DE00000B50246FF2000F0A7F80549CB1348697B
:100DF000002A01D0184300E09843486100BD00007C
:100E00000030004000B50246FF2000F095F805498B
:100E100002234869002A01D0184300E09843486142
:100E200000BD00000030004000B50246FF2000F089
:100E300083F80549002A486902D00122104301E0E5
:100E400040084000486100BD0030004030B5034616
:100E5000FF2000F071F8194A506903242403A043CD
:100E60002043506116488025834218D0FF2000F0AF
:100E700063F850690721C9018843184350615069DC
:100E8000284350615069000616D5D81FFF38FA383C
:100E900003D15069A043A9010BE0002030BD506987
:100EA000A84350615069000606D450690121A0434F
:100EB000090308435061F0E7012030BD00300040D5
:100EC0007FFF000010B50C4C0423024601280ED011
:100ED000FF2000F031F820699843206107498869B4
:100EE000E0239843886188691043886110BD2069B8
:100EF0001843206110BD000000E000E00030004019
:100F000005490028086902D00322104301E0800847
:100F1000800008617047000000E000E00449401EC6
:100F2000884203D803494861002088617047000067
:100F3000FFFFFF0000E000E0402803D30249C86043
:100F400000207047012070470030004001480168D0
:100F5000816070474C00002010B500F003F800F0ED
:100F60001FF810BD10B5FF20FFF7E6FF0020FFF7C8
:100F700023FF0020FFF758FF0120FFF743FF012068
:100F8000FFF7F6FE0120FFF72BFF0120FFF702FF1E
:100F900001204002FFF75AFF0020FFF7DDFE10BDE1
:100FA00010B5FF20FFF7C8FF0020FFF78BFF7D2063
:100FB000C001FFF7B3FF0448C1690902090AC16112
:100FC0000120FFF79DFF10BD04ED00E07047704762
:100FD00010B5FFF7F9FB10BD704700000120024972
:100FE000C00688607047000000ED00E010B50C48B6
:100FF0000021016041608160C1600161094C0221F2
:101000002046FFF767FB012240212046FFF786FBC1
:1010100001212046FFF752FBFFF798FF10BD0000AB
:101020004C0000200021024002480169491C016176
:10103000704700004C0000207047704770477047B1
:1010400070477047704770477047704710B5044C41
:101050002078002801D000F03DF8606010BD00004D
:10106000600000207FB505460C466846FFF7C9FAC8
:101070000022684682810120800400908000029056
:10108000694601922846FFF7A1FAE1B22846FFF728
:10109000ADFA01212846FFF77CFA01221102284609
:1010A000FFF78CFA7FBD000070B5002564262C4642
:1010B00000F05AF8641C4519A4B2B442F8D3314682
:1010C0002846FFF7D1F802490860888170BD00000A
:1010D0001000002010B500F05DF8064CA189401A00
:1010E000002801DC002010BDFFF792F9A16800F094
:1010F000B5F810BD1000002070B504460C4D4068D6
:10110000A860A189206800F017F8A1686068FFF75F
:10111000A9FF0121C9020748FFF7A2F80020688053
:1011200068602870A07B012801D1FFF7BDFF70BD6A
:1011300004000020740000201FB504460022684609
:1011400000928280C18002814281022181816946B0
:101150002046FFF75BFD01212046FFF74BFD2046AF
:10116000FFF768FD1FBD000010B5094CA068FFF730
:1011700043FA0121A068FFF719FA0028F9D00121EC
:10118000A068FFF704FAA068FFF70DFA10BD000091
:101190000400002010B5FFF7E7FFFFF721FB10BDAB
:1011A00010B5FFF7F7FF0149888110BD100000203E
:1011B000FFF756FCFFF72EFAFFF736FFFFF746FF63
:1011C000FFF76EFDFFF74CFBFFF736FBF4E700007F
:1011D00070B501250400ED074C4020D4441A01D21B
:1011E000001B0919C60D4B00F2B2FF2A29D01B0EB5
:1011F0002CD000020C02D31A2C43DC4028430519E2
:1012000010D2280A02D3401C6D0611D0761EF605B6
:101210008019FF2A00DA70BDC00DC00570BD69409D
:1012200000F0A6F801200543C541521C761CE8E7F2
:1012300064089C40C90161408900E7D10124A043B2
:10124000E4E71B0E440200D0034870BD002AFCD125
:10125000C00FC00770BD00BF0000C07F70B5420066
:1012600064414B005C41120E39D01B0E38D0FF2A6E
:101270003CD0FF2B3AD040024902400A490A0600FE
:1012800045184E43000A090AD2184843ED017F3A37
:101290000104731A4019190C4318990F04D0012145
:1012A0005B0849075B1A521CD80904D3401CF5039C
:1012B00001D19D0607D0FF2A08D2D50506D0E40744
:1012C0002043401970BD0125A843F4E7002A01DC42
:1012D000E00770BD2402FF202043C00570BD1B0E37
:1012E000FF2A03D0FF2B01D0E00770BDFF26450089
:1012F0003606B54206D84D00B54203D8D218FF2AAB
:1013000000D0E7E7004870BD0000C07F01230A005D
:10131000DB0502430DD4DA4203D49A4207D481425A
:101320007047D94214D4D84212D4814270478942BE
:101330007047DA4203D59A42F9D5884270475B007C
:101340004A00DA4204D24200DA4201D288427047AF
:101350004840414010B5024A4840FFF765F810BDCB
:101360000900160470B501250400ED074C4022D495
:10137000441A02D26C40001B0919C60D4B00F2B290
:10138000FF2A4BD01B0E50D000020C02D31A2C4364
:10139000DC40A843051B05D5AD0019D36D08761EAA
:1013A000521E37D0F605280A01D2801970BD70414F
:1013B0006D0603D070BD6940FFF710FF9C40090225
:1013C0006140490001D0401E70BD0124A04370BDA2
:1013D0006D081DD001202B0C01D12D0410302B0ED7
:1013E00001D12D0208302B0F01D12D01001DAB0FB3
:1013F00001D1AD00801CEB0F01D16D00401C6D00D0
:10140000361A121A680AF5054019012A02DB70BD66
:10141000002070BDC036300AC00770BD1B0E4402EC
:1014200001D1FF2B00D1024870BD002AF0D070BD61
:101430000000C07F00007A44F40100000000A040DA
:1014400060EA000064140008000000202000000092
:10145000040100088414000820000020001000008F
:101460002001000800000000000000000000000053
:101470001021024000000000FF3F000023DB793D07
:041480000000000068
:04000005080000C12E
:00000001FF
